:020000040800F2
:1000000000280020C50B0008690B00086F0B0008D2
:10001000750B00087B0B0008810B00080000000036
:10002000000000000000000000000000870B000836
:10003000930B0008000000009F0B0008AB0B0008AA
:100040000D0C00080D0C00080D0C00080D0C00082C
:100050000D0C00080D0C00080D0C00080D0C00081C
:100060000D0C00080D0C00080D0C00080D0C00080C
:100070000D0C00080D0C00080D0C00080D0C0008FC
:100080000D0C00080D0C00080D0C00080D0C0008EC
:100090000D0C00080D0C00080D0C00080D0C0008DC
:1000A0000D0C00080D0C00080D0C00080D0C0008CC
:1000B0000D0C00080D0C0008000000000D0C0008DD
:1000C0000D0C000800000000000000000D0C0008EE
:1000D000000000000D0C00080D0C000800000000DE
:1000E0000D0C00080D0C00080D0C000800000000AD
:1000F0000000000000000000000000000000000000
:0C01000000000000000000005FF808F1A3
:10010C0010B5054C237833B9044B13B10448AFF345
:10011C0000800123237010BD0C00002000000000A3
:10012C00341A000808B5034B1BB103490348AFF35D
:10013C00008008BD0000000010000020341A0008E8
:10014C0080B582B000AF00F05DFD00F0A7F800F0C4
:10015C00E1F800237B607B6801337B607B68052BB7
:10016C0043DC7B68C3F10503184600F027F9002235
:10017C002021494801F02CF801224021464801F089
:10018C0027F801228021444801F022F87B68022BD9
:10019C0015DC7B68C3F10203184600F0C1FA01229A
:1001AC0004213D4801F014F8012208213A4801F0DD
:1001BC000FF800221021384801F00AF861E07B6842
:1001CC00C3F10503184600F0ABFA012204213248B2
:1001DC0000F0FEFF002208212F4800F0F9FF012259
:1001EC0010212D4800F0F4FF4BE07B68072B2ADC34
:1001FC007B68C3F10703184600F0E0F801222021C8
:10020C00254800F0E5FF01224021234800F0E0FFE3
:10021C0000228021204800F0DBFF7B68C3F10A0339
:10022C00184600F07DFA002204211B4800F0D0FF94
:10023C0001220821184800F0CBFF0122102116489A
:10024C0000F0C6FF1DE07B680A2B1ADC7B68C3F14B
:10025C000A03184600F0B2F8012220210E4800F0E3
:10026C00B7FF002240210C4800F0B2FF0122802190
:10027C00094800F0ADFF7B68C3F10A03184600F093
:10028C004FFA7B68092B01DD00237B604FF47A70F9
:10029C0000F01AFD5FE700BF0008014080B590B088
:1002AC0000AF07F1180328220021184601F0B4FB17
:1002BC003B1D00221A605A609A60DA601A610223B0
:1002CC00BB610123BB621023FB6200237B6307F13C
:1002DC001803184600F094FF0346002B01D000F0E1
:1002EC0015FC0F237B600023BB600023FB60002305
:1002FC003B6100237B613B1D0021184601F002FA93
:10030C000346002B01D000F001FC00BF4037BD4676
:10031C0080BD000080B586B000AF07F10803002255
:10032C001A605A609A60DA60214B9B69204A43F04C
:10033C00040393611E4B9B6903F004037B607B6891
:10034C001B4B9B691A4A43F008039361184B9B693A
:10035C0003F008033B603B680022FC21154800F0C9
:10036C0037FF002243F6FF71134800F031FFFC23E6
:10037C00BB600123FB6000233B6102237B6107F11F
:10038C00080319460B4800F0A7FD43F6FF73BB604A
:10039C000123FB6000233B6102237B6107F108030F
:1003AC001946054800F098FD00BF1837BD4680BDC2
:1003BC000010024000080140000C014080B582B0E2
:1003CC0000AF78607B68092B00F2808101A252F8A3
:1003DC0023F000BF09040008510400089904000828
:1003EC00E10400082905000871050008B90500089A
:1003FC0001060008490600089106000800220121A8
:10040C00C64800F0E5FE00220221C44800F0E0FEE0
:10041C0000220421C14800F0DBFE00220821BF4865
:10042C0000F0D6FE00221021BC4800F0D1FE0022C4
:10043C002021BA4800F0CCFE01224021B74800F040
:10044C00C7FE67E101220121B44800F0C1FE002281
:10045C000221B24800F0BCFE00220421AF4800F09B
:10046C00B7FE01220821AD4800F0B2FE0122102196
:10047C00AA4800F0ADFE01222021A84800F0A8FEF9
:10048C0001224021A54800F0A3FE43E100220121F6
:10049C00A24800F09DFE00220221A04800F098FE28
:1004AC00012204219D4800F093FE002208219B4864
:1004BC0000F08EFE00221021984800F089FE0122E7
:1004CC002021964800F084FE00224021934800F041
:1004DC007FFE1FE100220121904800F079FE0022EE
:1004EC0002218E4800F074FE002204218B4800F09B
:1004FC006FFE00220821894800F06AFE01221021BB
:10050C00864800F065FE01222021844800F060FE40
:10051C0000224021814800F05BFEFBE0012201211A
:10052C007E4800F055FE002202217C4800F050FE6F
:10053C0000220421794800F04BFE01220821774863
:10054C0000F046FE01221021744800F041FE00220A
:10055C002021724800F03CFE002240216F4800F040
:10056C0037FED7E0002201216C4800F031FE012259
:10057C0002216A4800F02CFE00220421674800F09A
:10058C0027FE00220821654800F022FE01221021DE
:10059C00624800F01DFE00222021604800F018FE89
:1005AC00002240215D4800F013FEB3E0002201213F
:1005BC005A4800F00DFE01220221584800F008FEB6
:1005CC0000220421554800F003FE00220821534864
:1005DC0000F0FEFD00221021504800F0F9FD002231
:1005EC0020214E4800F0F4FD002240214B4800F041
:1005FC00EFFD8FE000220121484800F0E9FD0022C8
:10060C000221464800F0E4FD00220421434800F09A
:10061C00DFFD01220821414800F0DAFD0122102102
:10062C003E4800F0D5FD012220213C4800F0D0FDD1
:10063C0001224021394800F0CBFD6BE00022012162
:10064C00364800F0C5FD00220221344800F0C0FD00
:10065C0000220421314800F0BBFD002208212F4864
:10066C0000F0B6FD002210212C4800F0B1FD002254
:10067C0020212A4800F0ACFD00224021274800F040
:10068C00A7FD47E000220121244800F0A1FD002233
:10069C000221224800F09CFD002204211F4800F09A
:1006AC0097FD002208211D4800F092FD0122102127
:1006BC001A4800F08DFD00222021184800F088FD1A
:1006CC0000224021154800F083FD23E00022012187
:1006DC00124800F07DFD00220221104800F078FD48
:1006EC00002204210D4800F073FD002208210B4864
:1006FC0000F06EFD00221021084800F069FD002278
:10070C002021064800F064FD00224021034800F03F
:10071C005FFD00BF00BF0837BD4680BD000C014027
:10072C0080B582B000AF78607B68092B00F2BE8187
:10073C0001A252F823F000BF6D070008C1070008A2
:10074C001508000869080008BD0800081109000810
:10075C0065090008B90900080D0A0008610A0008BB
:10076C0000228021D04800F033FD00224FF480712C
:10077C00CD4800F02DFD00224FF40071CA4800F066
:10078C0027FD00224FF48061C74800F021FD0022B4
:10079C004FF40061C44800F01BFD00224FF480515F
:1007AC00C14800F015FD01224FF40051BE4800F085
:1007BC000FFDA5E101228021BB4800F009FD0022BC
:1007CC004FF48071B84800F003FD00224FF4007123
:1007DC00B54800F0FDFC01224FF48061B24800F0F6
:1007EC00F7FC01224FF40061AF4800F0F1FC01224C
:1007FC004FF48051AC4800F0EBFC01224FF4005157
:10080C00A94800F0E5FC7BE100228021A64800F01D
:10081C00DFFC00224FF48071A34800F0D9FC0122C8
:10082C004FF40071A04800F0D3FC00224FF480611B
:10083C009D4800F0CDFC00224FF400619A4800F076
:10084C00C7FC01224FF48051974800F0C1FC0022F4
:10085C004FF40051944800F0BBFC51E10022802180
:10086C00914800F0B5FC00224FF480718E4800F0E6
:10087C00AFFC00224FF400718B4800F0A9FC002261
:10088C004FF48061884800F0A3FC01224FF4006112
:10089C00854800F09DFC01224FF48051824800F005
:1008AC0097FC00224FF400517F4800F091FC27E1A7
:1008BC00012280217C4800F08BFC00224FF48071D7
:1008CC00794800F085FC00224FF40071764800F066
:1008DC007FFC01224FF48061734800F079FC012207
:1008EC004FF40061704800F073FC00224FF480510B
:1008FC006D4800F06DFC00224FF400516A4800F086
:10090C0067FCFDE000228021674800F061FC0122B9
:10091C004FF48071644800F05BFC00224FF40071CE
:10092C00614800F055FC00224FF480615E4800F0F5
:10093C004FFC01224FF400615B4800F049FC00229F
:10094C004FF48051584800F043FC00224FF4005102
:10095C00554800F03DFCD3E000228021524800F0C5
:10096C0037FC01224FF480714F4800F031FC00221B
:10097C004FF400714C4800F02BFC00224FF48061C6
:10098C00494800F025FC00224FF40061464800F075
:10099C001FFC00224FF48051434800F019FC002248
:1009AC004FF40051404800F013FCA9E000228021D4
:1009BC003D4800F00DFC00224FF480713A4800F0E5
:1009CC0007FC00224FF40071374800F001FC0122B3
:1009DC004FF48061344800F0FBFB01224FF40061BE
:1009EC00314800F0F5FB01224FF480512E4800F005
:1009FC00EFFB01224FF400512B4800F0E9FB7FE0A4
:100A0C0000228021284800F0E3FB00224FF4807183
:100A1C00254800F0DDFB00224FF40071224800F065
:100A2C00D7FB00224FF480611F4800F0D1FB00225D
:100A3C004FF400611C4800F0CBFB00224FF48051B6
:100A4C00194800F0C5FB00224FF40051164800F085
:100A5C00BFFB55E000228021134800F0B9FB0022B7
:100A6C004FF48071104800F0B3FB00224FF400717A
:100A7C000D4800F0ADFB00224FF480610A4800F0F5
:100A8C00A7FB01224FF40061074800F0A1FB0022F4
:100A9C004FF48051044800F09BFB00224FF40051AE
:100AAC00014800F095FB2BE0000C01400022802156
:100ABC00154800F08DFB00224FF48071124800F0B5
:100ACC0087FB00224FF400710F4800F081FB0022DD
:100ADC004FF480610C4800F07BFB00224FF4006166
:100AEC00094800F075FB00224FF48051064800F0D5
:100AFC006FFB00224FF40051034800F069FB00BF6C
:100B0C0000BF0837BD4680BD000C014080B400AF6B
:100B1C0072B600BFFEE7000080B483B000AF0E4B8E
:100B2C009B690D4A43F0010393610B4B9B6903F0E6
:100B3C0001037B607B68084BDB69074A43F08053F9
:100B4C00D361054BDB6903F080533B603B6800BF0E
:100B5C000C37BD4680BC70470010024080B400AF1B
:100B6C00FEE780B400AFFEE780B400AFFEE780B4D0
:100B7C0000AFFEE780B400AFFEE780B400AF00BF6B
:100B8C00BD4680BC704780B400AF00BFBD4680BC82
:100B9C00704780B400AF00BFBD4680BC704780B5C5
:100BAC0000AF00F075F800BF80BD80B400AF00BF8F
:100BBC00BD4680BC704700000C480D490D4A00230F
:100BCC0002E0D458C4500433C4188C42F9D30A4AF6
:100BDC000A4C002301E013600432A242FBD3FFF75E
:100BEC00E4FF00F0F5FEFFF7ABFA704700000020C1
:100BFC000C000020741A00080C0000202C000020AF
:100C0C00FEE7000080B500AF084B1B68074A43F0B5
:100C1C0010031360032000F02BF90F2000F008F8EC
:100C2C00FFF77AFF0023184680BD00BF002002406A
:100C3C0080B582B000AF7860124B1A68124B1B78EB
:100C4C0019464FF47A73B3FBF1F3B2FBF3F3184686
:100C5C0000F035F90346002B01D001230EE07B6830
:100C6C000F2B0AD8002279684FF0FF3000F00BF9F7
:100C7C00064A7B681360002300E0012318460837FE
:100C8C00BD4680BD000000200800002004000020AC
:100C9C0080B400AF054B1B781A46054B1B681344F8
:100CAC00034A136000BFBD4680BC7047080000209B
:100CBC002800002080B400AF024B1B681846BD46CC
:100CCC0080BC70472800002080B584B000AF7860ED
:100CDC00FFF7F0FFB8607B68FB60FB68B3F1FF3F88
:100CEC0005D00A4B1B781A46FB681344FB6000BF07
:100CFC00FFF7E0FF0246BB68D31AFA689A42F7D8AE
:100D0C0000BF00BF1037BD4680BD00BF08000020EB
:100D1C0080B485B000AF78607B6803F00703FB609C
:100D2C000C4BDB68BB60BA684FF6FF031340BB602B
:100D3C00FB681A02BB68134343F0BF6343F40033F0
:100D4C00BB60044ABB68D36000BF1437BD4680BC8F
:100D5C00704700BF00ED00E080B400AF044BDB68CF
:100D6C001B0A03F007031846BD4680BC704700BF42
:100D7C0000ED00E080B483B000AF03463960FB7136
:100D8C0097F90730002B0ADB3B68DAB20C4997F96C
:100D9C0007301201D2B20B4483F800230AE03B68FF
:100DAC00DAB20849FB7903F00F03043B1201D2B20B
:100DBC000B441A7600BF0C37BD4680BC704700BF91
:100DCC0000E100E000ED00E080B489B000AFF86015
:100DDC00B9607A60FB6803F00703FB61FB69C3F140
:100DEC000703042B28BF0423BB61FB690433062BC8
:100DFC0002D9FB69033B00E000237B614FF0FF321B
:100E0C00BB6902FA03F3DA43BB681A407B699A4068
:100E1C004FF0FF317B6901FA03F3D9437B680B4038
:100E2C00134318462437BD4680BC704780B582B04A
:100E3C0000AF78607B68013BB3F1807F01D3012365
:100E4C000FE00A4A7B68013B53600F214FF0FF30E3
:100E5C00FFF790FF054B00229A60044B07221A60A3
:100E6C00002318460837BD4680BD00BF10E000E0E7
:100E7C0080B582B000AF78607868FFF749FF00BF9B
:100E8C000837BD4680BD80B586B000AF0346B9605B
:100E9C007A60FB7300237B61FFF75EFF78617A68F1
:100EAC00B9687869FFF790FF024697F90F30114641
:100EBC001846FFF75FFF00BF1837BD4680BD80B5F1
:100ECC0082B000AF78607868FFF7B0FF0346184631
:100EDC000837BD4680BD000080B48BB000AF786091
:100EEC00396000237B6200233B6261E101227B6A53
:100EFC0002FA03F3FB613B681B68FA691340BB61A0
:100F0C00BA69FB699A4240F050813B685B68974A2A
:100F1C0093425ED0954A934275D8954A934258D0E5
:100F2C00934A93426FD8934A934252D0914A934238
:100F3C0069D8914A93424CD08F4A934263D88F4AD6
:100F4C00934246D08D4A93425DD8122B2AD8122B4D
:100F5C0059D801A252F823F0DF0F0008B90F00088E
:100F6C00CB0F00080D100008131000081310000818
:100F7C0013100008131000081310000813100008B9
:100F8C0013100008131000081310000813100008A9
:100F9C00131000081310000813100008C10F0008EC
:100FAC00D50F0008764A934213D02CE03B68DB68DF
:100FBC003B6229E03B68DB6804333B6224E03B681E
:100FCC00DB6808333B621FE03B68DB680C333B6239
:100FDC001AE03B689B68002B02D104233B6213E0B0
:100FEC003B689B68012B05D108233B627B68FA693F
:100FFC001A6109E008233B627B68FA695A6103E0D5
:10100C0000233B6200E000BFBB69FF2B01D87B686B
:10101C0001E07B6804337B61BB69FF2B02D87B6AE0
:10102C009B0002E07B6A083B9B003B617B691A6872
:10103C000F213B6901FA03F3DB431A40396A3B6920
:10104C0001FA03F31A437B691A603B685B6803F08F
:10105C008053002B00F0A9804A4B9B69494A43F00E
:10106C0001039361474B9B6903F00103BB60BB68B1
:10107C00454A7B6A9B08023352F82330FB607B6A3B
:10108C0003F003039B000F2202FA03F3DB43FA681D
:10109C001340FB607B683D4A93420DD07B683C4A11
:1010AC00934207D07B683B4A934201D1022304E070
:1010BC00032302E0012300E000237A6A02F003021A
:1010CC0092009340FA681343FB602F497B6A9B089C
:1010DC000233FA6841F823203B685B6803F48033E1
:1010EC00002B06D02C4B1A682B49BB6913430B60A1
:1010FC0006E0294B1A68BB69DB43274913400B6098
:10110C003B685B6803F40033002B06D0224B5A6813
:10111C002149BB6913434B6006E01F4B5A68BB69FE
:10112C00DB431D4913404B603B685B6803F4801341
:10113C00002B06D0184B9A681749BB6913438B6078
:10114C0006E0154B9A68BB69DB43134913408B606F
:10115C003B685B6803F40013002B1FD00E4BDA685E
:10116C000D49BB691343CB601FE000BF0000321078
:10117C00000031100000221000002110000012109D
:10118C000000111000100240000001400008014056
:10119C00000C014000100140000401400B4BDA68C8
:1011AC00BB69DB4309491340CB607B6A01337B622B
:1011BC003B681A687B6A22FA03F3002B7FF496AE25
:1011CC0000BF00BF2C37BD4680BC704700040140F7
:1011DC0080B483B000AF78600B467B8013467B7085
:1011EC007B78002B03D07A887B681A6103E07B88BC
:1011FC001A047B681A6100BF0C37BD4680BC70476F
:10120C0080B586B000AF78607B68002B01D10123DC
:10121C0072E27B681B6803F00103002B00F08780EF
:10122C00924B5B6803F00C03042B0CD08F4B5B6868
:10123C0003F00C03082B12D18C4B5B6803F4803346
:10124C00B3F5803F0BD1894B1B6803F40033002BA3
:10125C006CD07B685B68002B68D101234CE27B6807
:10126C005B68B3F5803F06D1804B1B687F4A43F423
:10127C00803313602EE07B685B68002B0CD17B4BBA
:10128C001B687A4A23F480331360784B1B68774AC7
:10129C0023F4802313601DE07B685B68B3F5A02FFB
:1012AC000CD1724B1B68714A43F4802313606F4B53
:1012BC001B686E4A43F4803313600BE06B4B1B6866
:1012CC006A4A23F480331360684B1B68674A23F423
:1012DC00802313607B685B68002B13D0FFF7EAFC5C
:1012EC00386108E0FFF7E6FC02463B69D31A642B31
:1012FC0001D9032300E25D4B1B6803F40033002B80
:10130C00F0D014E0FFF7D6FC386108E0FFF7D2FC10
:10131C0002463B69D31A642B01D90323ECE1534BEE
:10132C001B6803F40033002BF0D100E000BF7B6896
:10133C001B6803F00203002B63D04C4B5B6803F07B
:10134C000C03002B0BD0494B5B6803F00C03082BF0
:10135C001CD1464B5B6803F48033002B16D1434BF6
:10136C001B6803F00203002B05D07B681B69012B63
:10137C0001D00123C0E13D4B1B6823F0F8027B68D0
:10138C005B69DB00394913430B603AE07B681B69EE
:10139C00002B20D0364B01221A60FFF78BFC3861F2
:1013AC0008E0FFF787FC02463B69D31A022B01D9F0
:1013BC000323A1E12D4B1B6803F00203002BF0D09B
:1013CC002A4B1B6823F0F8027B685B69DB0027491A
:1013DC0013430B6015E0264B00221A60FFF76AFCE2
:1013EC00386108E0FFF766FC02463B69D31A022B12
:1013FC0001D9032380E11D4B1B6803F00203002B72
:10140C00F0D17B681B6803F00803002B3AD07B6893
:10141C009B69002B19D0174B01221A60FFF74AFC6D
:10142C00386108E0FFF746FC02463B69D31A022BF1
:10143C0001D9032360E10D4B5B6A03F00203002B1F
:10144C00F0D0012000F0A6FA1CE00A4B00221A6032
:10145C00FFF730FC38610FE0FFF72CFC02463B69CC
:10146C00D31A022B08D9032346E100BF0010024017
:10147C000000424280044242924B5B6A03F002033A
:10148C00002BE9D17B681B6803F00403002B00F0F0
:10149C00A6800023FB758B4BDB6903F08053002B7C
:1014AC000DD1884BDB69874A43F08053D361854B60
:1014BC00DB6903F08053BB60BB680123FB75824B77
:1014CC001B6803F48073002B18D17F4B1B687E4A7A
:1014DC0043F480731360FFF7EDFB386108E0FFF70E
:1014EC00E9FB02463B69D31A642B01D9032303E1C0
:1014FC00754B1B6803F48073002BF0D07B68DB68A2
:10150C00012B06D16F4B1B6A6E4A43F00103136229
:10151C002DE07B68DB68002B0CD16A4B1B6A694A97
:10152C0023F001031362674B1B6A664A23F0040322
:10153C0013621CE07B68DB68052B0CD1614B1B6ACA
:10154C00604A43F0040313625E4B1B6A5D4A43F02E
:10155C00010313620BE05B4B1B6A5A4A23F0010335
:10156C001362584B1B6A574A23F0040313627B68BF
:10157C00DB68002B15D0FFF79DFB38610AE0FFF705
:10158C0099FB02463B69D31A41F28832934201D946
:10159C000323B1E04B4B1B6A03F00203002BEED08C
:1015AC0014E0FFF787FB38610AE0FFF783FB024684
:1015BC003B69D31A41F28832934201D903239BE051
:1015CC00404B1B6A03F00203002BEED1FB7D012B79
:1015DC0005D13C4BDB693B4A23F08053D3617B68DC
:1015EC00DB69002B00F08780364B5B6803F00C0343
:1015FC00082B61D07B68DB69022B46D1334B002270
:10160C001A60FFF757FB386108E0FFF753FB0246FF
:10161C003B69D31A022B01D903236DE0294B1B68BC
:10162C0003F00073002BF0D17B681B6AB3F5803F8D
:10163C0008D1244B5B6823F400327B689B682149FA
:10164C0013434B601F4B5B6823F474127B68196A5D
:10165C007B685B6A0B431B4913434B601B4B01229A
:10166C001A60FFF727FB386108E0FFF723FB0246FF
:10167C003B69D31A022B01D903233DE0114B1B68A4
:10168C0003F00073002BF0D035E0104B00221A60F1
:10169C00FFF710FB386108E0FFF70CFB02463B69D3
:1016AC00D31A022B01D9032326E0064B1B6803F047
:1016BC000073002BF0D11EE07B68DB69012B07D196
:1016CC00012319E00010024000700040600042420B
:1016DC000B4B5B68FB60FB6803F480327B681B6A16
:1016EC009A4206D1FB6803F470127B685B6A9A42DB
:1016FC0001D0012300E0002318461837BD4680BDF9
:10170C000010024080B584B000AF786039607B680F
:10171C00002B01D10123D0E06A4B1B6803F00703B7
:10172C003A689A4210D9674B1B6823F00702654947
:10173C003B6813430B60634B1B6803F007033A6869
:10174C009A4201D00123B8E07B681B6803F00203C6
:10175C00002B20D07B681B6803F00403002B05D002
:10176C00594B5B68584A43F4E06353607B681B68D1
:10177C0003F00803002B05D0534B5B68524A43F42B
:10178C0060535360504B5B6823F0F0027B689B689E
:10179C004D4913434B607B681B6803F00103002B1E
:1017AC0040D07B685B68012B07D1474B1B6803F467
:1017BC000033002B15D101237FE07B685B68022B83
:1017CC0007D1414B1B6803F00073002B09D1012397
:1017DC0073E03D4B1B6803F00203002B01D1012386
:1017EC006BE0394B5B6823F003027B685B6836491E
:1017FC0013434B60FFF75EFAF8600AE0FFF75AFA02
:10180C000246FB68D31A41F28832934201D9032372
:10181C0053E02D4B5B6803F00C027B685B689B000C
:10182C009A42EBD1274B1B6803F007033A689A42A4
:10183C0010D2244B1B6823F0070222493B68134348
:10184C000B60204B1B6803F007033A689A4201D0E7
:10185C00012332E07B681B6803F00403002B08D0E3
:10186C00194B5B6823F4E0627B68DB681649134311
:10187C004B607B681B6803F00803002B09D0124BEC
:10188C005B6823F460527B681B69DB000E491343D1
:10189C004B6000F021F802460B4B5B681B0903F010
:1018AC000F030A49CB5C22FA03F3094A1360094B74
:1018BC001B681846FFF7BCF9002318461037BD46C5
:1018CC0080BD00BF00200240001002405C1A0008DE
:1018DC00000000200400002090B48AB000AF294B17
:1018EC003C1D0FCB84E80F0040F201233B8000230A
:1018FC00FB610023BB6100237B6200237B6100231F
:10190C003B62214B5B68FB61FB6903F00C03042B0E
:10191C0002D0082B03D02BE01C4B3B622BE0FB6965
:10192C009B0C03F00F0328333B4413F8243C7B61DE
:10193C00FB6903F48033002B12D0134B5B685B0CF8
:10194C0003F0010328333B4413F8283CBB617B694B
:10195C000E4A03FB02F2BB69B2FBF3F37B6204E0B9
:10196C007B690B4A02FB03F37B627B6A3B6202E0FE
:10197C00064B3B6200BF3B6A18462837BD4690BCFD
:10198C00704700BF4C1A00080010024000127A0089
:10199C0000093D0080B485B000AF78600A4B1B682D
:1019AC000A4AA2FB03235B0A7A6802FB03F3FB607F
:1019BC0000BFFB685A1EFA60002BF9D100BF00BFB4
:1019CC001437BD4680BC704700000020D34D621018
:1019DC0070B500260C4D0D4C641BA410A64209D109
:1019EC0000F022F800260A4D0A4C641BA410A642F3
:1019FC0005D170BD55F8043B98470136EEE755F814
:101A0C00043B98470136F2E76C1A00086C1A000880
:101A1C006C1A0008701A000803460244934200D165
:101A2C00704703F8011BF9E7F8B500BFF8BC08BC18
:101A3C009E467047F8B500BFF8BC08BC9E46704780
:101A4C0002030405060708090A0B0C0D0E0F1010F3
:101A5C000000000000000000010203040607080952
:041A6C00310100083C
:041A70000D0100085C
:0C1A74000024F40010000000010000003D
:0400000508000BC51F
:00000001FF
